{
  "contractName": "Article",
  "abi": [
    {
      "inputs": [
        {
          "internalType": "uint256",
          "name": "",
          "type": "uint256"
        }
      ],
      "name": "articles",
      "outputs": [
        {
          "internalType": "address",
          "name": "",
          "type": "address"
        }
      ],
      "stateMutability": "view",
      "type": "function",
      "constant": true
    },
    {
      "inputs": [
        {
          "internalType": "uint256",
          "name": "id",
          "type": "uint256"
        }
      ],
      "name": "verify",
      "outputs": [
        {
          "internalType": "uint256",
          "name": "",
          "type": "uint256"
        }
      ],
      "stateMutability": "nonpayable",
      "type": "function"
    },
    {
      "inputs": [],
      "name": "getArticles",
      "outputs": [
        {
          "internalType": "address[8]",
          "name": "",
          "type": "address[8]"
        }
      ],
      "stateMutability": "view",
      "type": "function",
      "constant": true
    }
  ],
  "bytecode": "0x608060405234801561001057600080fd5b5061042f806100206000396000f3fe608060405234801561001057600080fd5b50600436106100415760003560e01c80636529f44a146100465780638753367f14610064578063edcfafe614610094575b600080fd5b61004e6100c4565b60405161005b91906102f2565b60405180910390f35b61007e60048036038101906100799190610349565b610145565b60405161008b9190610385565b60405180910390f35b6100ae60048036038101906100a99190610349565b6101bc565b6040516100bb91906103af565b60405180910390f35b6100cc6101f2565b600060088060200260405190810160405280929190826008801561013b576020028201915b8160009054906101000a900473ffffffffffffffffffffffffffffffffffffffff1673ffffffffffffffffffffffffffffffffffffffff16815260200190600101908083116100f1575b5050505050905090565b60008082101580156101575750600882105b61016057600080fd5b3360008360088110610175576101746103ca565b5b0160006101000a81548173ffffffffffffffffffffffffffffffffffffffff021916908373ffffffffffffffffffffffffffffffffffffffff160217905550819050919050565b600081600881106101cc57600080fd5b016000915054906101000a900473ffffffffffffffffffffffffffffffffffffffff1681565b604051806101000160405280600890602082028036833780820191505090505090565b600060089050919050565b600081905092915050565b6000819050919050565b600073ffffffffffffffffffffffffffffffffffffffff82169050919050565b600061026082610235565b9050919050565b61027081610255565b82525050565b60006102828383610267565b60208301905092915050565b6000602082019050919050565b6102a481610215565b6102ae8184610220565b92506102b98261022b565b8060005b838110156102ea5781516102d18782610276565b96506102dc8361028e565b9250506001810190506102bd565b505050505050565b600061010082019050610308600083018461029b565b92915050565b600080fd5b6000819050919050565b61032681610313565b811461033157600080fd5b50565b6000813590506103438161031d565b92915050565b60006020828403121561035f5761035e61030e565b5b600061036d84828501610334565b91505092915050565b61037f81610313565b82525050565b600060208201905061039a6000830184610376565b92915050565b6103a981610255565b82525050565b60006020820190506103c460008301846103a0565b92915050565b7f4e487b7100000000000000000000000000000000000000000000000000000000600052603260045260246000fdfea26469706673582212201ef4be4c496406851424123bde0765fb3489f2f383c952e5fc42d9758d741a6464736f6c63430008100033",
  "immutableReferences": {},
  "source": "pragma solidity ^0.8.0;\r\n\r\ncontract Article {\r\n\r\n  address[8] public articles;  // \r\n\r\n    // \r\n  function verify(uint id) public returns (uint) {\r\n    require(id >= 0 && id < 8);  // id\r\n\r\n    articles[id] = msg.sender;        // \r\n    return id;\r\n  }\r\n\r\n  // \r\n  function getArticles() public view returns (address[8] memory) {\r\n    return articles;\r\n  }\r\n\r\n}",
  "sourcePath": "D:\\thales\\casia\\dao-journal\\contracts\\article.sol",
  "compiler": {
    "name": "solc",
    "version": "0.8.16+commit.07a7930e.Emscripten.clang"
  },
  "schemaVersion": "3.4.10",
  "updatedAt": "2022-11-09T11:51:14.510Z",
  "networkType": "ethereum",
  "devdoc": {
    "kind": "dev",
    "methods": {},
    "version": 1
  },
  "userdoc": {
    "kind": "user",
    "methods": {},
    "version": 1
  }
}